:100000000C9434000C9451000C9451000C94510049
:100010000C9451000C9451000C9451000C9451001C
:100020000C9451000C9451000C9451000C9451000C
:100030000C9451000C9451000C946E000C946400CC
:100040000C9478000C9451000C94A2010C94510073
:100050000C9451000C9451000C9451000C945100DC
:100060000C9451000C94510011241FBECFEFD8E026
:10007000DEBFCDBF11E0A0E0B1E0ECE6FDE002C0E4
:1000800005900D92AA31B107D9F721E0AAE1B1E0BC
:1000900001C01D92A23FB207E1F70E94DC010C945F
:1000A000B4060C9400001092C50087E68093C4004B
:1000B000E1ECF0E088E0808386E08093C2007894F1
:1000C00080818069808308951F920F920FB60F92EE
:1000D00011240F900FBE0F901F9018951F920F9232
:1000E0000FB60F9211240F900FBE0F901F9018950E
:1000F0001F920F920FB60F9211240F900FBE0F9008
:100100001F901895FC0101900020E9F73197E81B3A
:10011000F90BE093F101109220011092C60030918A
:1001200020012091F101321790F42091C00025FFA9
:10013000F6CF20912001FC01E20FF11D20812093D8
:10014000C600209120012F5F20932001E8CF10925C
:100150001F01089580E091E00E948200789485B5A7
:10016000856085BD85B58D7F85BD85B5877F85BD5E
:1001700084B5836084BDEEE6F0E080818760808393
:1001800084B5806A84BD83E087BD8AEF88BD8AB16B
:1001900080668AB908950F931F93CF93DF93CDB7ED
:1001A000DEB7E2970FB6F894DEBF0FBECDBF8A016F
:1001B000AB01BE016F5F7F4F0E948A03CE010196A3
:1001C0000E9482000130110521F48EE091E00E942E
:1001D0008200E2960FB6F894DEBF0FBECDBFDF916E
:1001E000CF911F910F91089580911A0141E050E045
:1001F0006AE070E090E00E94CB002FEF83ED90E387
:10020000215080409040E1F700C0000008958F9297
:100210009F92AF92BF92CF92DF92EF92FF920F9395
:10022000CF936B017C01C42F213081F50E945902CC
:100230004B015C01072E000C880B990B0E94910268
:100240009B01AC01C701B6010E94EC0120E030E047
:100250004AE754E40E941D039F770E9459027F934E
:100260006F939F928F9281E191E09F938F9381E2B0
:1002700091E09F938F930E94BA038DB79EB7089623
:100280000FB6F8949EBF0FBE8DBF2FC00E945902BB
:100290004B015C01072E000C880B990B0E94910208
:1002A0009B01AC01C701B6010E94EC0120E030E0E7
:1002B00048EC52E40E941D039F770E9459027F93ED
:1002C0006F939F928F9281E191E09F938F9381E250
:1002D00091E09F938F930E94BA038DB79EB70896C3
:1002E0000FB6F8949EBF0FBE8DBF0023A1F081E230
:1002F00091E00E948200C13071F48EE091E0CF91D4
:100300000F91FF90EF90DF90CF90BF90AF909F90B4
:100310008F900C948200CF910F91FF90EF90DF901F
:10032000CF90BF90AF909F908F90089510921C0136
:1003300091E090931B0180931E0180911B018130FD
:10034000E1F308951F920F920FB60F9211248F932D
:100350009F93EF93FF9380911B01813001F5E09112
:100360001C018091C600F0E0E75BFE4F8083E091C6
:100370001C0180911E01F0E0E75BFE4F9081981315
:1003800008C010921B01E0911C01F0E0E75BFE4FFA
:10039000108280911C018F5F80931C0104C08091AA
:1003A000C60080931F01FF91EF919F918F910F9055
:1003B0000FBE0F901F9018950E9453000E94AA0034
:1003C0000E94F4002FEF83ED90E321508040904095
:1003D000E1F700C00000F4CF5058BB27AA270E94C5
:1003E00004020C94E3020E94D50238F00E94DC0261
:1003F00020F039F49F3F19F426F40C94D2020EF445
:10040000E095E7FB0C94CC02E92F0E94F40258F32C
:10041000BA17620773078407950720F079F4A6F5E9
:100420000C9416030EF4E0950B2EBA2FA02D0B01A1
:10043000B90190010C01CA01A0011124FF27591B29
:1004400099F0593F50F4503E68F11A16F040A22F2F
:10045000232F342F4427585FF3CF469537952795A0
:10046000A795F0405395C9F77EF41F16BA0B620B9F
:10047000730B840BBAF09150A1F0FF0FBB1F661FE6
:10048000771F881FC2F70EC0BA0F621F731F841F29
:1004900048F4879577956795B795F7959E3F08F04F
:1004A000B0CF9395880F08F09927EE0F9795879511
:1004B00008950E9460026894B1110C941703089586
:1004C0000E94FC0288F09F5798F0B92F9927B751E6
:1004D000B0F0E1F0660F771F881F991F1AF0BA95E8
:1004E000C9F714C0B13091F00E941603B1E008952D
:1004F0000C941603672F782F8827B85F39F0B93F1F
:10050000CCF3869577956795B395D9F73EF490959A
:100510008095709561957F4F8F4F9F4F0895E89418
:1005200009C097FB3EF490958095709561957F4F3B
:100530008F4F9F4F9923A9F0F92F96E9BB279395E9
:10054000F695879577956795B795F111F8CFFAF4F9
:10055000BB0F11F460FF1BC06F5F7F4F8F4F9F4F2A
:1005600016C0882311F096E911C0772321F09EE888
:10057000872F762F05C0662371F096E8862F70E0EE
:1005800060E02AF09A95660F771F881FDAF7880FC8
:100590009695879597F9089597F99F6780E870E099
:1005A00060E008959FEF80EC089500240A941616E9
:1005B000170618060906089500240A941216130651
:1005C000140605060895092E0394000C11F48823DF
:1005D00052F0BB0F40F4BF2B11F460FF04C06F5FFB
:1005E0007F4F8F4F9F4F089557FD9058440F551FD1
:1005F00059F05F3F71F04795880F97FB991F61F0A5
:100600009F3F79F087950895121613061406551F1B
:10061000F2CF4695F1DF08C0161617061806991F87
:10062000F1CF86957105610508940895E894BB277C
:1006300066277727CB0197F908950E9430030C9421
:10064000E3020E94D50238F00E94DC0220F09523DC
:1006500011F00C94CC020C94D20211240C941703C8
:100660000E94F40270F3959FC1F3950F50E0551F5F
:10067000629FF001729FBB27F00DB11D639FAA27F7
:10068000F00DB11DAA1F649F6627B00DA11D661F46
:10069000829F2227B00DA11D621F739FB00DA11D67
:1006A000621F839FA00D611D221F749F3327A00D21
:1006B000611D231F849F600D211D822F762F6A2FBD
:1006C00011249F5750409AF0F1F088234AF0EE0F22
:1006D000FF1FBB1F661F771F881F91505040A9F74F
:1006E0009E3F510580F00C94CC020C9417035F3FA1
:1006F000E4F3983ED4F3869577956795B795F7958B
:10070000E7959F5FC1F7FE2B880F911D9695879502
:1007100097F908954532510520F4423010F00C94B9
:100720009503FB011082CB010895BB274A3031F4B9
:10073000992322F4BDE2909581959F4F0C94A103DB
:10074000BB27FB015527AA27880F991FAA1FA417AB
:1007500010F0A41B83955051B9F7A05DAA3308F09F
:10076000A95DA193009779F7B111B1931192CB01D3
:100770000C94D305AEE0B0E0E0ECF3E00C948B0613
:100780000D891E8986E08C831A8309838FEF9FE78A
:100790009E838D83AE01475E5F4F6F89788DCE015A
:1007A00001960E94DC03EF81F885E00FF11F1082B3
:1007B0002E96E4E00C94A706ABE0B0E0E2EEF3E0A6
:1007C0000C947D066C017B018A01FC011782168264
:1007D000838181FFCCC1CE0101963C01F60193815A
:1007E000F70193FD859193FF81917F01882309F49F
:1007F000BAC1853239F493FD859193FF81917F01D0
:10080000853229F4B60190E00E94E305E7CF912CF0
:10081000212C312CFFE1F315D8F08B3279F038F42C
:10082000803279F08332A1F4232D20611DC08D32F6
:1008300061F0803369F4232D216016C0832D82601E
:10084000382EE32DE4603E2E2AC0F32DF8601DC043
:1008500037FC2DC020ED280F2A3040F08E32B9F43D
:1008600036FC81C1232D2064322E19C036FE06C00D
:100870008AE0989E200D1124922E11C0EAE02E9E4F
:10088000200D1124222EF32DF0623F2E08C08C364D
:1008900021F4832D8068382E02C0883641F4F70198
:1008A00093FD859193FF81917F018111B3CF982FA3
:1008B0009F7D9554933028F40C5F1F4F9FE39983DD
:1008C0000DC0833631F0833771F0833509F059C09C
:1008D00021C0F801808189830E5F1F4F8824839493
:1008E000912C530113C02801F2E04F0E511CF80166
:1008F000A080B18036FE03C0692D70E002C06FEFAA
:100900007FEFC5010E94C8054C018201F32DFF77DE
:100910003F2E16C0280122E0420E511CF801A08093
:10092000B18036FE03C0692D70E002C06FEF7FEF2B
:10093000C5010E94BD054C01F32DF0683F2E8201D8
:1009400033FC1BC0822D90E088169906B0F4B601E6
:1009500080E290E00E94E3052A94F4CFF50137FC91
:10096000859137FE81915F01B60190E00E94E30519
:1009700021102A9421E0821A91088114910471F7C0
:10098000E8C0843611F0893641F5F80137FE07C01A
:1009900060817181828193810C5F1F4F08C06081EB
:1009A0007181072E000C880B990B0E5F1F4FF32DE2
:1009B000FF763F2E97FF09C09095809570956195C1
:1009C0007F4F8F4F9F4FF0683F2E2AE030E0A3010A
:1009D0000E941F06882E861845C0853731F4232DC6
:1009E0002F7EB22E2AE030E025C0932D997FB92EBC
:1009F0008F36C1F018F4883579F0B5C0803719F01A
:100A0000883721F0B0C0E92FE061BE2EB4FE0DC0E2
:100A1000FB2DF460BF2E09C034FE0AC0292F2660CA
:100A2000B22E06C028E030E005C020E130E002C070
:100A300020E132E0F801B7FE07C060817181828158
:100A400093810C5F1F4F06C06081718180E090E050
:100A50000E5F1F4FA3010E941F06882E8618FB2DD4
:100A6000FF773F2E36FE0DC0232D2E7FA22E891438
:100A700058F434FE0BC032FC09C0832D8E7EA82EA4
:100A800005C0B82CA32C03C0B82C01C0B92CA4FEFF
:100A90000FC0FE01E80DF11D8081803321F49A2DF5
:100AA000997EA92E09C0A2FE06C0B394B39404C0D7
:100AB0008A2D867809F0B394A3FC11C0A0FE06C06D
:100AC000B21488F4280C922C9B180EC0B21460F457
:100AD000B60180E290E00E94E305B394F7CFB21430
:100AE00018F42B1802C0982C212CA4FE10C0B601BB
:100AF00080E390E00E94E305A2FE17C0A1FC03C0C2
:100B000088E790E002C088E590E0B6010CC08A2D2D
:100B1000867859F0A1FE02C08BE201C080E2A7FCFA
:100B20008DE2B60190E00E94E305891438F4B60125
:100B300080E390E00E94E3059A94F7CF8A94F30152
:100B4000E80DF11D8081B60190E00E94E30581105F
:100B5000F5CF222009F442CEB60180E290E00E9457
:100B6000E3052A94F6CFF6018681978102C08FEFC4
:100B70009FEF2B96E2E10C949906FC0105906150E1
:100B800070400110D8F7809590958E0F9F1F0895A3
:100B9000FC016150704001900110D8F7809590954C
:100BA0008E0F9F1F0895DC01FC01672F7191772341
:100BB000E1F7329704C07C916D9370836291AE1718
:100BC000BF07C8F308950F931F93CF93DF93FB01E3
:100BD000238121FD03C08FEF9FEF2CC022FF16C0A1
:100BE00046815781248135814217530744F4A081FF
:100BF000B1819D012F5F3F4F318320838C932681EC
:100C000037812F5F3F4F3783268314C08B01EC0160
:100C1000FB010084F185E02D0995892BE1F6D801CF
:100C200016968D919C911797019617969C938E938B
:100C30001697CE01DF91CF911F910F910895FA0180
:100C4000AA27283051F1203181F1E8946F936E7F0B
:100C50006E5F7F4F8F4F9F4FAF4FB1E03ED0B4E0FC
:100C60003CD0670F781F891F9A1FA11D680F791F3D
:100C70008A1F911DA11D6A0F711D811D911DA11D4E
:100C800020D009F468943F912AE0269F112430195E
:100C9000305D3193DEF6CF010895462F4770405DF9
:100CA0004193B3E00FD0C9F7F6CF462F4F70405DA8
:100CB0004A3318F0495D31FD4052419302D0A9F703
:100CC000EACFB4E0A6959795879577956795BA95FD
:100CD000C9F700976105710508959B01AC010A2EC3
:100CE00006945795479537952795BA95C9F7620F9A
:100CF000731F841F951FA01D08952F923F924F923E
:100D00005F926F927F928F929F92AF92BF92CF929B
:100D1000DF92EF92FF920F931F93CF93DF93CDB7A4
:100D2000DEB7CA1BDB0B0FB6F894DEBF0FBECDBF1C
:100D300009942A88398848885F846E847D848C84ED
:100D40009B84AA84B984C884DF80EE80FD800C81F6
:100D50001B81AA81B981CE0FD11D0FB6F894DEBFD9
:0C0D60000FBECDBFED010895F894FFCF49
:100D6C00737461727420666173742070776D0A0DF0
:0A0D7C000025642E253032750000BA
:00000001FF
